:10000000F8FF002011040000F31B0000F31B0000A8
:10001000F31B0000F31B0000F31B0000F31B0000A8
:10002000F31B0000F31B0000F31B0000F31B000098
:10003000F31B0000F31B0000F31B0000F31B000088
:10004000F31B0000F31B0000F31B0000F31B000078
:10005000F31B0000F31B0000F31B0000F31B000068
:10006000F31B0000F31B0000F31B0000F31B000058
:10007000F31B0000F31B0000F31B0000F31B000048
:10008000F31B0000F31B0000F31B0000F31B000038
:10009000F31B0000F31B0000F31B0000F31B000028
:1000A000F31B0000F31B0000F31B0000F31B000018
:1000B000F31B0000F31B0000F31B0000F31B000008
:1000C000F31B0000F31B0000F31B0000F31B0000F8
:1000D000F31B0000F31B0000F31B0000F31B0000E8
:1000E000F31B0000F31B0000F31B0000F31B0000D8
:1000F000F31B0000F31B0000F31B0000F31B0000C8
:10010000F31B0000F31B0000F31B0000F31B0000B7
:10011000F31B0000F31B0000F31B0000F31B0000A7
:10012000F31B0000F31B0000F31B0000F31B000097
:10013000F31B0000F31B0000F31B0000F31B000087
:10014000F31B0000F31B0000F31B0000F31B000077
:10015000915F0000F31B0000F31B0000F31B000085
:10016000F31B0000F31B0000F31B0000F31B000057
:10017000F31B0000F31B0000F31B0000F31B000047
:10018000F31B0000F31B0000F31B0000F31B000037
:10019000F31B0000F31B0000F31B0000F31B000027
:10040000FFFFFFFFFFFFFFFFFFFFFFFFFEFFFFFFFD
:1004100062B64FF000004FF000014FF000024FF0C5
:1004200000034FF000044FF000054FF000064FF0BE
:1004300000074FF000084FF000094FF0000A4FF09E
:10044000000B4FF0000C04F041F8FEE780B50123EB
:1004500001220A21042001F081F8012301220C214C
:10046000042001F07BF80C21012001F0EDF801BD22
:1004700080B5012301220221042001F06FF801233D
:1004800001220321042001F069F80E21012001F06E
:10049000DBF801BD10B5B548006850F48050B34991
:1004A000086000F065F9B148006850F48060AF4919
:1004B000086000F05DF9AD48006830F48050AB4949
:1004C000086000F055F9A948006830F48060A74939
:1004D000086000200400E4B27F2C15D200F048F937
:1004E00000F046F9A148006850F480609F49086018
:1004F00000F03EF900F03CF99C48006830F4806060
:100500009A490860641CE6E700F032F900F030F91F
:100510009648006850F480609449086000F028F91B
:1005200000F026F99148006830F480608F49086037
:1005300010BD10B58D48006850F008008B49086068
:1005400000F016F98948006850F0040087490860F7
:1005500000F00EF98548006830F008008349086013
:1005600000F006F98148006830F004007F49086017
:1005700000200400E4B27F2C15D200F0F9F800F05E
:10058000F7F87A48006850F004007849086000F0F5
:10059000EFF800F0EDF87548006830F0040073499A
:1005A0000860641CE6E700F0E3F800F0E1F86F484B
:1005B000006850F004006D49086000F0D9F800F0C0
:1005C000D7F86A48006830F004006849086010BD38
:1005D00038B504006548006850F4805063490860ED
:1005E00000F0C6F86148006850F480605F49086018
:1005F00000F0BEF85D48006830F480505B49086048
:1006000000F0B6F800200500EDB2FA2D03D200F09C
:10061000AFF86D1CF8E700220C21012001F031F940
:100620002070641C5148006830F480604F490860B5
:1006300000200500EDB27F2D1CD200F099F800F0EB
:1006400097F84A48006850F480604849086000F014
:100650008FF800F08DF800220C21012001F011F933
:100660002070641C4148006830F480603F49086095
:100670006D1CDFE700F07CF800F07AF83B4800687A
:1006800050F480603949086000F072F800F070F8AA
:100690003648006830F480603449086031BD38B5B0
:1006A00004003248006850F008003049086000F04B
:1006B0005FF82E48006850F004002C49086000F0F4
:1006C00057F82A48006830F008002849086000F010
:1006D0004FF800200500EDB2FA2D03D200F048F8E3
:1006E0006D1CF8E700220E21012001F0CAF82070ED
:1006F000641C1E48006830F004001C49086000209B
:100700000500EDB27F2D1CD200F032F800F030F879
:100710001648006850F004001449086000F028F8FA
:1007200000F026F800220E21012001F0AAF8207026
:10073000641C0E48006830F004000C4908606D1C11
:10074000DFE700F015F800F013F80848006850F0F3
:1007500004000649086000F00BF800F009F80348AF
:10076000006830F004000149086031BD00F10F401D
:1007700081B000208DF800009DF80000012807D20C
:1007800000BF00BF9DF80000401C8DF80000F3E79B
:1007900001B070472DE9F84300260024002700250A
:1007A0005FF000095FF0000814200600DFF8900CED
:1007B00000210160DFF88C0CFF210160DFF8880C5C
:1007C00000210160F6B26C2E2CD2DFF87C0C0068A0
:1007D000F6B2DFF8781C715C4018DFF86C1C08601A
:1007E000F6B2DFF8680C305CDFF8541C0968884208
:1007F00006DBF6B2DFF8540C305CDFF8441C08600E
:10080000DFF8400C0068F6B2DFF8401C715C8842EB
:1008100006DBF6B2DFF8340C305CDFF8281C086029
:10082000761CCFE7DFF8200C0068582190FBF1F030
:10083000DFF8141C0860DFF8140C0078DFF80C1CDB
:100840004978401ADFF8081C086001200600F6B25B
:100850007F2E13D2F6B2DFF8F40B301810F8010C2B
:10086000F6B2DFF8E81B71184978401A4010F6B26A
:10087000DFF8DC1B41F82600761CE8E7DFF8CC0B3C
:1008800090F87E00DFF8C41B91F87F10401ADFF863
:10089000C01BC1F8FC01DFF8BC0B00680600DFF8E4
:1008A000B80B00210160F6B2142E13D3DFF8A80BA9
:1008B0000068F6B2DFF8981B51F82610884207DB73
:1008C000F6B2DFF88C0B50F82600DFF88C1B0860BE
:1008D000761EE8E7DFF8800B006801F0A3F802005D
:1008E0000B005FF03330DFF8741B01F0B1F801F05A
:1008F00081F9DFF86C1B0860DFF8580B0068040012
:10090000E4B2142C20D3DFF85C0B00784042DFF80F
:10091000481B096888420FDBDFF8440B0068E4B22B
:10092000DFF82C1B51F8241088420BDBDFF8380B62
:1009300004700120070007E0DFF82C0B1421017080
:1009400000200700641EDBE7DFF8080B00680600E4
:10095000DFF8180B00210160F6B26C2E13D2F6B24C
:10096000DFF8EC0A50F82600DFF8001B096888421F
:1009700007DBF6B2DFF8D80A50F82600DFF8EC1AE9
:100980000860761CE8E7DFF8E40A006801F04AF83E
:1009900002000B005FF03330DFF8C01A01F058F8A6
:1009A00001F028F9DFF8C81A0860DFF8A80A006823
:1009B0000400E4B26C2C1FD2DFF8B00A0068DFF844
:1009C000B41A097888420FDBE4B2DFF8840A50F8E1
:1009D0002400DFF89C1A096888420BDBDFF8980ACC
:1009E00004700120050007E0DFF88C0A6B2101701C
:1009F00000200500641CDCE71E200600DFF87C0AEE
:100A000000210160F6B2622E13D2F6B2DFF8400A7E
:100A100050F82600DFF8641A0968884207DBF6B24E
:100A2000DFF82C0A50F82600DFF8501A0860761C10
:100A3000E8E71E200400E4B2622C1CD2DFF83C0A76
:100A400000680A280FDBE4B2DFF8040A50F824003B
:100A5000DFF8281A096888420BDBDFF8240A0470E3
:100A60000120814607E0DFF8180A1E2101700020EE
:100A70008146641CDFE761200600DFF8080A0021D8
:100A80000160DFF8FC090078F6B2864213D3DFF884
:100A9000F4090068F6B2DFF8B81951F82610884258
:100AA00007DBF6B2DFF8A80950F82600DFF8D41902
:100AB0000860761EE5E761200400DFF8C4090078CD
:100AC000E4B284421DD3DFF8BC09006810F1090FBD
:100AD0000FDADFF8B0090068E4B2DFF8741951F8F2
:100AE000241088420BDBDFF8A00904700120804647
:100AF00007E0DFF894096121017000208046641E40
:100B0000DBE7DFF888090078DFF880194978401AB8
:100B1000DFF87C19086001200600F6B27F2E13D2A0
:100B2000F6B2DFF86809301810F8010CF6B2DFF8F9
:100B30005C1971184978401A4010F6B2DFF8501964
:100B400041F82600761CE8E7DFF8400990F87E00BF
:100B5000DFF8381991F87F10401ADFF83419C1F81E
:100B6000FC0140200600DFF82C0900210160F6B2EC
:100B7000052E13D3DFF81C090068F6B2DFF8101950
:100B800051F82610884207DBF6B2DFF8040950F866
:100B90002600DFF800190860761EE8E7DFF8F408A1
:100BA000006800F03FFF02000B005FF03330DFF819
:100BB000AC1800F04DFF01F01DF8DFF8DC180860FC
:100BC00040200400E4B2052C1CD3DFF8D0080078E4
:100BD0004042DFF8C018096888420DDBDFF8B8082A
:100BE0000068E4B2DFF8A81851F82410884207DB47
:100BF000DFF8AC08047005E0DFF8A40805210170F7
:100C0000641EDFE740200600DFF89808002101603D
:100C1000F6B27B2E13D2F6B2DFF8740850F8260035
:100C2000DFF880180968884207DBF6B2DFF8600851
:100C300050F82600DFF86C180860761CE8E7DFF84B
:100C40006408006800F0EEFE02000B005FF0333035
:100C5000DFF8081800F0FCFE00F0CCFFDFF84818C1
:100C6000086040200400E4B27B2C1BD2DFF834087B
:100C70000068DFF82818097888420DDBE4B2DFF855
:100C8000100850F82400DFF820180968884207DBB4
:100C9000DFF81808047005E0DFF810087A21017009
:100CA000641CE0E705200600DFF80408002101606D
:100CB000DFF8EC070078F6B2B04213D3F6B2DFF8F3
:100CC000D00750F82600DFF8E8170968884207DBEC
:100CD000F6B2DFF8BC0750F82600DFF8D41708603A
:100CE000761CE5E705200400DFF8B4070078E4B2DD
:100CF000A0421BD3DFF8B8070068DFF8A017097817
:100D000088420DDBE4B2DFF8880750F82400DFF8F2
:100D1000A0170968884207DBDFF89807047005E030
:100D2000DFF8900705210170641CDDE77A200600DA
:100D3000DFF8840700210160DFF870070078F6B261
:100D4000864213D3DFF870070068F6B2DFF8401769
:100D500051F82610884207DBF6B2DFF8340750F866
:100D60002600DFF854170860761EE5E77A200400B5
:100D7000DFF838070078E4B284421CD3DFF81C07A0
:100D800000784042DFF83017096888420DDBDFF851
:100D900028070068E4B2DFF8F81651F824108842FA
:100DA00007DBDFF81807047005E0DFF810077A2189
:100DB0000170641EDCE75FFA89F9B9F1010F30D1E7
:100DC0005FFA88F8B8F1010F2BD1DFF8BC06007884
:100DD000DFF8AC160978401A072822DADFF8A806EF
:100DE0000078DFF89C16097888421AD0DFF8900660
:100DF0000078612815D0DFF888060078DFF88816BB
:100E000009780818DFF8B816096811EB6000DFF8F8
:100E1000B4160860DFF8B006DFF8B01609680160A4
:100E2000F4E0FFB2012F40F09480EDB2012D40F0CC
:100E30009080DFF8880600787A2828D0DFF87C06D2
:100E40000078DFF868160978401A17280DDBDFF8FC
:100E50006C060078DFF854160978401A1F2804DA67
:100E6000DFF86C0601210170D0E0DFF8FC050078A6
:100E7000DFF80416097808184010DFF848160860F3
:100E8000DFF84406DFF84C1609680160BEE0DFF8C1
:100E900024060078052828D0DFF804060078DFF85B
:100EA00014160978401A17280DDBDFF8F4050078CE
:100EB000DFF800160978401A1F2804DADFF8180650
:100EC00001210170A2E0DFF8A0050078DFF8A81585
:100ED000097808184010DFF8EC150860DFF8E8051D
:100EE000DFF8F0150968016090E0DFF8E4050078AC
:100EF000012804D0DFF8E0050078012806D1DFF8EA
:100F0000DC050078401CDFF8D4150870DFF8CC054C
:100F1000007814280BD3DFF8C40500210170DFF836
:100F2000B00500210170DFF8B00500210170DFF885
:100F300038050078DFF84015097808184010DFF808
:100F400084150860DFF88005DFF8881509680160FE
:100F50005CE0FFB2012F12D1EDB2002D0FD1DFF80E
:100F600008050078DFF8781509780818DFF85415B7
:100F70000860DFF85405DFF85C1509680160FFB20E
:100F8000002F12D1EDB2012D0FD1DFF8EC04007863
:100F9000DFF850150978401ADFF828150860DFF8E7
:100FA0002805DFF830150968016055EA0700C0B26E
:100FB00000282BD1DFF80C0540210160DFF8840404
:100FC0000068DFF824150978884204DBDFF81C0587
:100FD000012101701AE0DFF818050078DFF86014CD
:100FE0000968884212DBDFF80C05007801280DD172
:100FF000DFF804050078002804D1DFF8000501219E
:10100000017003E0DFF8F40402210170DFF8EC0462
:101010000078012807D1DFF8E8040078401CDFF8E9
:10102000E014087003E0DFF8D80400210170DFF855
:10103000CC040078012838D1DFF8C40400780828EF
:1010400033D3DFF8BC0408210170DFF860040078B6
:101050007A2812D0DFF84804007805280DD1DFF88F
:10106000A4040078012808D0DFF88C040078002858
:1010700003D1DFF8940401210170DFF83004007817
:101080007A2812D1DFF81804007805280DD0DFF88F
:1010900078040078012808D0DFF85C040078002884
:1010A00003D1DFF8600401210170DFF858040078F3
:1010B000012840F0AA80DFF854040078401CDFF8D3
:1010C0004C140870DFF844040078DFF84414097801
:1010D0008842C0F03281DFF83404DFF83414097834
:1010E0000170DFF8300400685A285ADADFF8240467
:1010F0000068402855DBDFF820040078022850D033
:10110000DFF81404007801281CD1DFF81004DFF8A0
:10111000041409680160DFF8AC03DFF8F81309680C
:101120000160DFF8F0030068401EDFF8E813086094
:10113000DFF8E0030068462820D1DFF8DC03022155
:1011400001701BE0DFF8D403DFF8C8130968016001
:10115000DFF87003DFF8BC1309680160DFF8B4033F
:101160000068401CDFF8AC130860DFF8A8030068D3
:10117000592803D1DFF8A00301210170DFF8A00393
:10118000DFF8A01309680160DFF89C03DFF89C1307
:1011900009680160DFF89803DFF8981309680160B7
:1011A000CBE0DFF894030078401CDFF88C13087064
:1011B000DFF86803C34909680160DFF87C03007841
:1011C0001428C0F0BA80DFF8700300210170DFF846
:1011D000280301210170DFF82C0300210170C748AA
:1011E00000210170DFF83803DFF85013096801604F
:1011F000DFF83403DFF8481309680160DFF83003D3
:10120000DFF840130968016097E0BF4800780128C3
:101210007DD1DFF834030078401CDFF82C13087010
:10122000C9480078BA4909788842C0F08680C64823
:10123000B74909780170C5480068272841DBC348D1
:10124000006841283DDAC2480078022839D0C048F9
:101250000078012814D1B148BC4909680160994857
:10126000BA4909680160B9480068401CB74908607C
:10127000B64800683B2817D1B5480221017013E039
:10128000A648B249096801608E48B0490968016002
:10129000AE480068401EAD490860AC480068272889
:1012A00002D1AB48012101709D489E490968016047
:1012B0009D489E49096801609D489E4909680160F2
:1012C0003BE09D480078401C9B49087093487D494D
:1012D000096801609848007814282ED396480021A8
:1012E0000170894800210170834801210170834801
:1012F000002101708A489149096801608A48904933
:10130000096801608A488F490968016015E08348CF
:101310006C49096801604F486A49096801604D4895
:101320000068152802DA4B4814210160494800681A
:101330006B2802DB47486B21016070480078022867
:1013400005D184480078401C8249087002E0814839
:101350000021017069480078022824D17D48007876
:10136000082820D3644800210170644800210170DE
:1013700065480021017063480021017065484021E3
:1013800001607248402101607248082101705F4885
:10139000002101706C48002101705F48002101703C
:1013A0006B48002101706C480078012831D100F0B1
:1013B000F8FC4D2200210A2000F0A5FD4922002161
:1013C000122000F0A0FD4E2200211A2000F09BFD0B
:1013D0001C4802680021282000F0D6FD4D22032180
:1013E0000A2000F090FD41220321122000F08BFD25
:1013F000582203211A2000F086FD114802680321BB
:10140000282000F0C1FD104802680621082000F0E5
:10141000BBFD2A480178002000F01CFE2548017819
:10142000012000F017FE21480178022000F012FE92
:101430001B480178032000F00DFEBDE8F18300BFDA
:101440006C06FF1F7006FF1F940AFF1F040BFF1F8F
:101450009406FF1F0006FF1F7406FF1F3333E33F90
:101460009C0AFF1FF80CFF1FD60CFF1F7806FF1FFA
:10147000980AFF1FF70CFF1FD70CFF1F7C06FF1FEA
:10148000D80CFF1F8006FF1FD90CFF1F840BFF1F06
:101490009408FF1F8406FF1FA40AFF1FF90CFF1FFB
:1014A000DA0CFF1F8806FF1FA00AFF1FDB0CFF1FBF
:1014B0008C06FF1FDC0CFF1F9006FF1FDD0CFF1FBB
:1014C0000C0CFF1F0406FF1F500CFF1F100CFF1F0A
:1014D000EA0CFF1F140CFF1FEC0CFF1FEB0CFF1F8F
:1014E000FA0CFF1FFB0CFF1FFE0CFF1FE90CFF1F78
:1014F000FD0CFF1FF30CFF1FDE0CFF1FDF0CFF1F97
:10150000E20CFF1FE10CFF1FE00CFF1FE50CFF1FAB
:10151000FC0CFF1F0806FF1FE70CFF1FFC05FF1F49
:10152000580CFF1F180CFF1F940CFF1F1C0CFF1FF3
:10153000480CFF1F200CFF1FE30CFF1F240CFF1F94
:10154000280CFF1F2C0CFF1FE60CFF1F0C06FF1FB3
:10155000E80CFF1FE40CFF1FF60CFF1FF8B504009A
:101560000D0016001F00EDB2202D02D2FFB2022F97
:1015700003D32421314800F0E1FDEDB2E4B230485C
:1015800050F82400F6B24FF48071314340F8251032
:10159000F00705D5F6B2032E02D0F6B2132E0DD108
:1015A000E4B2284850F8240040690121A94088434A
:1015B000E4B2244951F8241048612AE0E4B22148F9
:1015C00050F8240040690121A9400843E4B21D49B4
:1015D00051F824104861FFB2012F0DD1E4B219482F
:1015E00050F8240000680121A9400843E4B21549DD
:1015F00051F8241008600CE0E4B2124850F82400BE
:1016000000680121A9408843E4B20E4951F8241032
:101610000860F1BD38B504000D00EDB2202D03D3F4
:101620007121064800F08AFDE4B2064850F8240013
:101630000069E84010F0010032BD0000F4630000D2
:101640002806FF1F1406FF1F38B504000D00E4B282
:10165000002C05D1EDB2082D02D3EDB2132D0DD320
:10166000E4B2012C05D1EDB2042D02D3EDB2122D5E
:1016700004D32221DFF8440300F060FDE4B2002C23
:1016800003D0012C00F08380FAE0DFF83403006817
:1016900050F00060DFF828130860DFF828030068C6
:1016A00030F09000DFF81C130860DFF81803002109
:1016B0000160EDB22800083801280CD9801E0128ED
:1016C0001BD9801E01282BD9801E01283AD9C01EA3
:1016D000012849D959E0DFF8F002006850F4806031
:1016E000DFF8E4120860EDB2A80000F1804010F5C8
:1016F0009420002140F8201C48E0DFF8CC0200686C
:101700004FF400710843DFF8C0120860EDB2A80082
:1017100000F1804010F59220002140F80C1C35E0CB
:10172000DFF8A402006850F48060DFF89C120860C3
:10173000EDB2A80000F1804010F59420002140F89F
:10174000281C23E0DFF88002006850F40060DFF816
:1017500078120860EDB2A80000F1804010F59620E4
:10176000002140F8381C11E0DFF85C02006850F4FA
:101770000050DFF854120860EDB2A80000F180407C
:1017800010F59A200021C16100E079E078E0DFF8EF
:101790003C02006850F00060DFF830120860DFF8AB
:1017A0002402006830F41040DFF818120860DFF8F7
:1017B000140200210160EDB22800001F03280BD99C
:1017C000001F01281AD9801E032829D9001F0128CB
:1017D00038D9C01E46D052E0DFF8EC01006850F462
:1017E0000050DFF8E4110860EDB2A80000F180407D
:1017F00010F59A20002140F8101C40E0DFF8C801E5
:10180000006850F48060DFF8C0110860EDB2A800F5
:1018100000F1804010F59420002140F8201C2EE0BB
:10182000DFF8A401006850F48060DFF89C110860C4
:10183000EDB2A80000F1804010F59420002140F89E
:10184000181C1CE06048006850F480605E49086025
:10185000EDB2A80000F1804010F59420002140F87E
:10186000181C0CE0584800684FF4007108435649B2
:101870000860EDB25648002140F82510FFE7FFE769
:1018800031BDF8B504000D0016000027E4B2002CAD
:1018900005D1EDB2082D02D3EDB2132D0CD3E4B275
:1018A000012C05D1EDB2042D02D3EDB2122D03D3DC
:1018B0008721424800F042FC3200D2B22900C9B26E
:1018C0002000C0B200F056F8E4B2424850F82400BC
:1018D00000680006F8D5E4B23E4850F824000069DC
:1018E0000700E4B23B4850F82400006830F0800064
:1018F000E4B2384951F824100860380080B2F2BDD3
:101900002DE9F84304000D0016001F005FF00008E9
:10191000E4B2002C05D1EDB2082D02D3EDB2132DA7
:101920000CD3E4B2012C05D1EDB2042D02D3EDB2FB
:10193000122D03D3BE21214800F000FC0020814677
:101940005FFA89F9FFB2B9450DD23200D2B229004F
:10195000C9B22000C0B2FFF794FF18FA80F08046A9
:1019600019F10109ECE7FFB2B8FBF7F8404680B285
:10197000BDE8F28370B504000D00160015F01F00DD
:1019800050F0400014490872B00010F00C0050F004
:101990005000114908701048042141700E4841F26E
:1019A000342141800C4845F2786181800A49E4B2D3
:1019B000084850F8240000F011F870BD6064000081
:1019C0003C8004401880044038800440308004404B
:1019D00000900440F405FF1F5C06FF1F0A78826038
:1019E0004A78C2604A8882618A88C2618A790262C2
:1019F000CA794262CA6802650A7A02604A7A42601B
:101A0000704750F8041B61B150F8042BD30744BF52
:101A1000A9F101039A18002342F8043B091FFAD1E7
:101A2000EFE77047010040F10780F446404200F0C4
:101A300003F851F00041604709D0B0FA80F18840C6
:101A4000C91CC1F58461090501EBD021400570472F
:101A5000B0B581EA030C0CF0004C40F2FF7515EABA
:101A600011541DBF15EA1357AC42AF4239E0E419D7
:101A700023EA455343F48013C90241F0004141EA8F
:101A8000505EC7021100A7FB020200284FF00000C1
:101A9000EEFB01204FF00001E3FB072118BF42F0ED
:101AA0000102401800214941E3FB0E01A4F58064C6
:101AB0000F0302D252004041494154F101046CDD50
:101AC000470872F1004250F1000051EB0451A1F5BA
:101AD00080115CBF41EA0C01B0BD4CEA0551002009
:101AE000B0BD05EA1357AC4214BFAF4241E050EA23
:101AF000410E1CBF52EA430E02E061460020B0BD19
:101B000024423C441BD15FEA070EF6D0090302BF12
:101B100001460020AEF1140EB1FA81F7AEEB0704D6
:101B200001FA07FE0C37C7F1200100FA07F7C84099
:101B30004EEA000E23EA455343F48013A2E733F044
:101B40000043B3FA83F704BFB2FA82FE77440B3F37
:101B5000E41BB7F1200E2FBF02FA0EF3BB40C7F112
:101B6000200E22FA0EFE38BF43EA0E03BA40641C70
:101B700082E750EA410E14BF52EA430E6FF00001B3
:101B80004FF4001717EB430F8ABF194617EB410FAD
:101B9000B5E74CEA05510020B0BDD4F10104B4F121
:101BA00020070FDAC4F12007520828BF42F00102D3
:101BB00010FA07F501FA07F7E1BF2A43E04038437E
:101BC000E1400FE0352C98DCC7F1200452EA4002D6
:101BD00020FA07F218BF42F0010231FA07F0A140E3
:101BE0000A43002172F1004250F1000051EB0C0158
:101BF000B0BD7047F446400D40EAC120490006D20E
:101C000000F00EF8004248BF6FF00040604700F05F
:101C100007F84FF0004188428CBF084640426047B9
:101C200040F00040490DA1F58061491C05D4D1F177
:101C30001F0154BFC840C01770474FF000007047E5
:101C40000821DFF80824126852F40042DFF8FC3360
:101C50001A6000BFDFF8F423126832F40022DFF8C4
:101C6000EC331A6000BF0A00511ED2B2002A25D000
:101C7000020608D5DFF8D423126852F40032DFF8E8
:101C8000CC331A6007E0DFF8C423126832F4003264
:101C9000DFF8B8331A60DFF8B423126852F4002278
:101CA000DFF8A8331A6000BFDFF8A023126832F40F
:101CB0000022DFF898331A604000D4E77047000034
:101CC0000821DFF88823126832F40042DFF87C3301
:101CD0001A60DFF87823126832F40022DFF86C33E0
:101CE0001A600A00511ED2B2002A25D0020608D579
:101CF000DFF85823126852F40032DFF850331A60CC
:101D000007E0DFF84823126832F40032DFF83C3392
:101D10001A60DFF83823126852F40022DFF82C33FF
:101D20001A6000BFDFF82423126832F40022DFF8C3
:101D30001C331A604000D4E7704738B504000D002A
:101D4000B5F15000C0B2FFF7BBFFE4B2200950F07C
:101D50001000C0B2FFF7B4FF14F00F00FFF7B0FFA0
:101D600031BD70B5040000200500EDB2082D17D27A
:101D7000B5F15000C0B2FFF7A3FF0120FFF7A0FFAD
:101D80001020FFF79DFF00200600F6B2802E05D23E
:101D90002000C0B2FFF754FF761CF6E76D1CE4E7A5
:101DA00070BD38B500200400E4B2082C16D2B4F19E
:101DB0005000C0B2FFF784FF0120FFF781FF102021
:101DC000FFF77EFF00200500EDB2802D04D2002039
:101DD000FFF736FF6D1CF7E7641CE5E731BD00280F
:101DE00008D043F2264211000A00511E002AFBD1FE
:101DF000401EF4E7704780B5002301221121002026
:101E0000FFF7ACFB0023012210210020FFF7A6FB07
:101E10000023012213210020FFF7A0FB0123012250
:101E20000F210020FFF79AFBDFF82002006830F452
:101E30008030DFF8181208603220FFF7D0FFDFF89B
:101E40000C02006850F48030DFF800120860AE2009
:101E5000FFF736FF0020FFF733FF1020FFF730FFBA
:101E60004020FFF72DFF8120FFF72AFFCF20FFF74B
:101E700027FFA120FFF724FFC820FFF721FFA6209E
:101E8000FFF71EFFA820FFF71BFF3F20FFF718FFFB
:101E9000D320FFF715FF0020FFF712FFD520FFF733
:101EA0000FFF8020FFF70CFFD920FFF709FFF1207B
:101EB000FFF706FFDA20FFF703FF1220FFF700FF0E
:101EC000DB20FFF7FDFE4020FFF7FAFE2020FFF7A2
:101ED000F7FE0220FFF7F4FE8D20FFF7F1FE14203D
:101EE000FFF7EEFEA420FFF7EBFEA620FFF7E8FECB
:101EF000AF20FFF7E5FE0020FFF733FF00210020B1
:101F0000FFF71BFF01BD2DE9F041040088461500D5
:101F100000260027B5F120000600E4B2792C03D397
:101F20000020040018F101084146C9B22000C0B2E7
:101F3000FFF703FF00200700FFB2082F0AD2F6B216
:101F4000300150FA87F0DFF80811405CFFF778FEA7
:101F50007F1CF1E718F10101C9B22000C0B2FFF700
:101F6000ECFE00200700FFB2082F0BD2F6B23001C2
:101F700050FA87F0DFF8D8104018007AFFF760FEBB
:101F80007F1CF0E7BDE8F0812DE9F84F04000D005B
:101F9000934642F21070BBFBF0F0814642F21070A3
:101FA000BBFBF0F100FB11B04FF47A71B0FBF1F024
:101FB00082464FF47A70BBFBF0F100FB11B0642154
:101FC000B0FBF1F006006420BBFBF0F100FB11B0A8
:101FD0000A21B0FBF1F007000A20BBFBF0F100FB87
:101FE00011B0804619F13002D2B22900C9B2A01D49
:101FF000C0B2FFF788FF1AF13002D2B22900C9B28D
:1020000014F11200C0B2FFF77EFF16F13002D2B217
:102010002900C9B214F11E00C0B2FFF774FF17F116
:102020003002D2B22900C9B214F12A00C0B2FFF7BF
:102030006AFF18F13002D2B22900C9B214F1360099
:10204000C0B2FFF760FFBDE8F18F000000F00F4065
:10205000DC3E000010B489B24FF4807291FBF2F2C2
:10206000C0B2344B03F81020C0B2324A12EB400227
:1020700089B24FF4807391FBF3F404FB1314547092
:1020800010BC7047F8B504000D000027FC210520A6
:1020900000F03BF90721052000F037F9CF2105209A
:1020A00000F033F92100C9B2052000F02EF93F1FDE
:1020B000FF1D313FE71900200600F6B2802E09D23D
:1020C000F6B2715D052000F020F9F6B2705DC71917
:1020D000761CF2E73900C9B2052000F016F9F1BD0F
:1020E00038B50025FB21052000F00FF96D210520F2
:1020F00000F00BF92521052000F007F96D1F6D3563
:102100002535002004000C480078E4B284420BD24C
:10211000E4B20848215C052000F0F7F8E4B2054875
:10212000205C4519641CEEE72900C9B2052000F0C7
:10213000ECF831BDD00AFF1F1006FF1F38B50400B0
:102140000D0000F011F92A002100034800F0FFFB08
:1021500000F033F9F7E700BFB0620000F0B4C0B29E
:10216000002808D0022824D014D304283FD02FD32D
:1021700005284BD059E06B4E4FF4407737606A4EDC
:102180004FF440773760694E366856F48066674F83
:102190003E604AE0664E4FF440773760654E4FF43C
:1021A00040773760614E366856F400665F4F3E6098
:1021B0003BE0614E4FF440773760604E4FF440771C
:1021C00037605A4E366856F48056584F3E602CE0C1
:1021D0005B4E4FF4407737605A4E4FF4407737608C
:1021E000524E366856F40056504F3E601DE0564E33
:1021F0004FF440773760554E4FF440773760544E78
:10220000366856F48066524F3E600EE0514E4FF4F1
:1022100040773760504E4FF4407737604C4E366809
:1022200056F400664A4F3E60FFE7C0B24B4E56F888
:102230002060F67816F0F306C0B2484F57F82070C9
:10224000FE70C0B2454E56F820600027B770C0B28D
:10225000002801D1012600E00026C0B2012801D1EA
:10226000012700E000273E43F6B2002E06D03C4E88
:1022700036684FF47A777E43350005E0394E36688C
:102280004FF47A777E4335000E01B5FBF6F6320047
:10229000C0B2324E56F82060367816F0E0063400B0
:1022A00092B2160A16F01F062643C0B22B4F57F8FB
:1022B00020703E70C0B2294E56F8206072706E01D8
:1022C0000F01B6FBF7F692B2B6EB42163300C0B27E
:1022D000224E56F82060B67A16F0E0063400C0B2FE
:1022E0001E4E56F8206013F01F072743B772C0B286
:1022F0001A4E56F82060F67856F00C06C0B2174F0A
:1023000057F82070FE70F0BC7047C0B2134A52F804
:10231000202012791206F8D5C0B2104A52F82020B7
:10232000D171704718C004401CC004403480044080
:102330000CB0044010B004400CC0044008C004407D
:1023400040B0044044B0044038B004403CB00440C5
:102350002880044024D0044020D004404406FF1FBD
:10236000A80CFF1FB00CFF1F80B5012301220C2118
:102370000320FFF7F3F8012301220D210320FFF7CB
:10238000EDF8012301220E210320FFF7E7F80123D6
:1023900001220F210320FFF7E1F801BD1E4AD26898
:1023A0001268012383409A43C9B211F001038340AC
:1023B0001A43194BDB681A60704710B501230122DC
:1023C0000C210320FFF7CAF8012301220D2103206D
:1023D000FFF7C4F8012301220E210320FFF7BEF806
:1023E000012301220F210320FFF7B8F80C2004007D
:1023F000E4B2102C0ED200212000C0B2FFF7CEFFB5
:10240000642000F0B9FA01212000C0B2FFF7C6FF36
:10241000641CEDE710BD00001406FF1F70B504003A
:102420000D0016003068012802D0022805D00AE00D
:102430002000C0B27168884705E0B0680470B068D9
:10244000401CB060FFE72868401C286070BD2DE983
:10245000F04704005FF0000A5046A1465FF0000A12
:1024600089F800A019F10109002A1FD0D1F800A0B5
:102470005546002D05D15FF0300A89F800A0401CB8
:1024800038E0002D36D095FBF3FA564603FB165A7A
:102490005746002F02D5FF43313700E03037350073
:1024A00089F8007019F10109401CEAE7D1F800A091
:1024B000D446BCF1000F05D15FF0300A89F800A0C6
:1024C000401C17E0BCF1000F14D0BCFBF3FAD64659
:1024D00003FB1ECAD046B8F10A0F02D218F1300829
:1024E00001E018F13708F44689F8008019F1010974
:1024F000401CE7E7BDE8F0872DE9F04104000D003E
:1025000016001F00A046A84507DA3A003100302027
:10251000FFF784FF18F10108F5E7BDE8F0812DE928
:10252000F04104000D0016001F00A046A84507DA80
:102530003A0031002020FFF771FF18F10108F5E79C
:10254000BDE8F0812DE9F24F92B0040015000020A3
:102550000090129883469BF800000590002800F038
:10256000F2810598252813D005980A2805D0220065
:1025700000A90598FFF752FF09E0220000A90D20ED
:10258000FFF74CFF220000A90A20FFF747FFD7E121
:1025900000208146002003900398002822D11BF1DF
:1025A000010B9BF8000020280ED0232812D02B28E6
:1025B00007D02D2802D0302809D00EE059F00109AB
:1025C000EAE759F00209E7E759F00409E4E759F0AE
:1025D0000809E1E759F01009DEE7BBF1010B012022
:1025E0000390D9E70020824600200390039800283A
:1025F00013D11BF1010B9BF800000590303809281E
:1026000006D80A20059900FB0A10B0F1300AEDE760
:10261000BBF1010B01200390E8E71BF1010B9BF8D4
:1026200000002E2811D100200390039800280ED11D
:102630001BF1010B9BF800003038092800D8F4E7A3
:10264000BBF1010B01200390EFE7BBF1010B1BF184
:10265000010B9BF800004C2806D0682802D06C289B
:1026600001D002E003E002E001E0BBF1010B1BF14D
:10267000010B9BF800000590582875D0622800F0E7
:10268000D580632800F01D81642813D0692811D0FB
:102690006E2800F049816F2800F0BD80702800F09E
:1026A000D080732800F01681752800F0D580782836
:1026B0005AD040E1286806902D1D0A23012206A960
:1026C00009A8FFF7C4FE070009A8381806000698F5
:1026D000002803D52D2002907F1C0FE0484680077C
:1026E00003D52B2002907F1C08E04846400703D505
:1026F000202002907F1C01E0002002900020049026
:102700004846000711D50298002804D0220000A9ED
:102710000298FFF783FE01200490230000AA51468F
:102720003800FFF7E9FE574612E04846C0070FD4CD
:10273000230000AA51463800FFF7F1FE0298002856
:1027400004D0220000A90298FFF768FE012004903F
:102750000498002807D10298002804D0220000A97C
:102760000298FFF75BFE98E0286801902D1D10236A
:10277000002201A909A8FFF76AFE070009A8381876
:102780000600002004904846000716D54846C006BB
:102790000BD5220000A93020FFF740FE220000A93F
:1027A0007820FFF73BFE01200490230000AA514649
:1027B0003800FFF7A1FE57461BE04846C00718D473
:1027C0004846C00600D5BF1C230000AA5146380069
:1027D000FFF7A5FE4846C0060BD5220000A9302011
:1027E000FFF71CFE220000A97820FFF717FE01204A
:1027F00004904846C0060DD5049800280AD122004E
:1028000000A93020FFF70AFE220000A97820FFF778
:1028100005FEBF1C41E0286801902D1D0823002201
:1028200001A909A8FFF713FE07001FE0286801901F
:102830002D1D0223002201A909A8FFF708FE0700A9
:1028400014E0286801902D1D1023002201A909A879
:10285000FFF7FDFD070009E0286801902D1D0A2300
:10286000002201A909A8FFF7F2FD070009A83818FE
:1028700006004846000707D5230000AA5146380045
:10288000FFF73AFE574608E04846C00705D4230044
:1028900000AA51463800FFF742FE3078002806D0E3
:1028A000220000A93078FFF7B9FD761EF5E748460B
:1028B000C00705D5230000AA51463800FFF72FFEB8
:1028C0003EE0287807902D1D220000A90798FFF709
:1028D000A5FD35E0286880462D1DB8F1000F22D0F7
:1028E000404600F05BF807004846C00705D42300C7
:1028F00000AA51463800FFF712FE98F800000028A1
:1029000008D0220000A998F80000FFF787FD18F111
:102910000108F2E74846C00705D5230000AA514642
:102920003800FFF7FCFD0BE0286808902D1D089883
:102930000099016004E0220000A90598FFF76EFDF0
:102940001BF1010B07E6009813B0BDE8F08F0EB441
:102950007EB50400012000900648019007A80500FC
:102960002A00210000A8FFF7EDFD060030007EBC24
:102970005DF810FBB168000000231900814209D204
:10298000054B1B681A00002A02D000BF521EFAE74E
:10299000491CF3E770470000B00CFF1F01000A005C
:1029A0000023002A01D1002007E01000421C00781B
:1029B000002801D05B1CF8E718007047DFF800F032
:1029C0003904FF1FDFF800F06104FF1FDFF800F09B
:1029D000DD04FF1F10B572B6FFF7F0FF01231322CD
:1029E00018210020FEF7BAFD01231322192100202F
:1029F000FEF7B4FD0123132206210020FEF7AEFDF1
:102A0000012313220A210020FEF7A8FD012313222F
:102A10000C210020FEF7A2FD012313220821002033
:102A2000FEF79CFD18210020FEF7F4FD012840F080
:102A3000848019210020FEF7EDFD01287DD10621BB
:102A40000020FEF7E7FD002877D1FFF7D4F9DFF883
:102A5000300B0078002870D10A210020FEF7DAFD43
:102A6000002825D16420FFF787FF0A210020FEF708
:102A7000D1FD00281CD1DFF80C0B006804003220C7
:102A8000FFF77AFF641DFF20FFF79CFF3220FFF75E
:102A900073FF22000421FF20FFF798FF3220FFF789
:102AA0006BFFFFF77EF9220004210820FFF76CFA84
:102AB0000C210020FEF7AEFD002825D16420FFF791
:102AC0005BFF0C210020FEF7A5FD00281CD1DFF8DC
:102AD000B40A006804003220FFF74EFF641FFF2095
:102AE000FFF770FF3220FFF747FF22000421FF208D
:102AF000FFF76CFF3220FFF73FFFFFF752F922008C
:102B000004210820FFF740FA08210020FEF782FD8B
:102B100000289CD16420FFF72FFF08210020FEF73A
:102B200079FD002804D1DFF8580A012101708EE7F1
:102B3000DFF84C0A0021017089E718210020FEF718
:102B400069FD002840F0998019210020FEF762FD00
:102B5000012840F0928006210020FEF75BFD00284E
:102B600040F08B80FFF747F90A210020FEF752FD65
:102B7000002828D16420FFF7FFFE0A210020FEF77D
:102B800049FD00281FD13220FFF7F6FEFE20FFF797
:102B900019FF3220FFF7F0FE06220421FE20FFF786
:102BA00015FF3220FFF7E8FE522203210A20FFF72B
:102BB000AAF92B2203211A20FFF7A5F936220321B7
:102BC0002020FFF7A0F90C210020FEF723FD0028AC
:102BD0002BD16420FFF7D0FE0C210020FEF71AFD58
:102BE000002822D13220FFF7C7FEFE20FFF7EAFEC1
:102BF0003220FFF7C1FE7FF005020421FE20FFF71F
:102C0000E5FE3220FFF7B8FEFFF7CBF84C22032198
:102C10000A20FFF778F92D2203211A20FFF773F914
:102C2000362203212020FFF76EF908210020FEF74D
:102C3000F1FC002898D16420FFF79EFE08210020B7
:102C4000FEF7E8FC00288FD13220FFF795FEFE202A
:102C5000FFF7B8FE3220FFF78FFE00220421FE208E
:102C6000FFF7B4FE3220FFF787FEFFF79AF8302215
:102C700003212020FFF747F976E718210020FEF70F
:102C8000C9FC012840F09B8019210020FEF7C2FCFE
:102C9000012840F0948006210020FEF7BBFC0128AB
:102CA00040F08D80DFF8E0080A210170DFF8DC08D1
:102CB00006210170DFF8D80803210170DFF8D4087D
:102CC00019210170DFF8D0081B210170DFF8CC0852
:102CD000DFF8CC1809680160DFF8C8080821017026
:102CE000DFF8C4083C210170DFF8C00850210170F2
:102CF000DFF8BC08DFF8BC180160DFF8BC08DFF8BB
:102D0000B4180160DFF8B408DFF8B4180160DFF828
:102D1000B408DFF8B4180160DFF8B008DFF8B018C5
:102D20000160DFF8B008DFF8B0180160DFF8AC0828
:102D3000DFF8AC180160DFF8AC08DFF8AC18016010
:102D4000DFF8A80840F698010160DFF8A4082F21F9
:102D50000160DFF8A008DFF870180160DFF898085C
:102D6000DFF898180160DFF89808DFF87418016040
:102D7000DFF89008DFF890180160DFF890084FF452
:102D8000AF610180DFF8880807210170DFF884084F
:102D9000DFF854180160DFF88008DFF83C180160A4
:102DA000DFF87808DFF80C180160DFF87408DFF846
:102DB00028180160DFF86C08DFF81C180160182182
:102DC0000020FEF727FC002840F09B8019210020FE
:102DD000FEF720FC012840F0948006210020FEF739
:102DE00019FC012840F08D80DFF89C070A21017052
:102DF000DFF8980706210170DFF8940703210170BE
:102E0000DFF8900719210170DFF88C071B21017092
:102E1000DFF88807DFF8881709680160DFF88407A2
:102E20000A210170DFF880073C210170DFF87C0780
:102E300050210170DFF87807DFF878170160DFF8BC
:102E40007807DFF870170160DFF87007DFF8701798
:102E50000160DFF87007DFF870170160DFF86C07BA
:102E6000DFF86C170160DFF86C07DFF86C170160A2
:102E7000DFF86807DFF868170160DFF86807DFF838
:102E800068170160DFF8640740F698010160DFF819
:102E900060072F210160DFF85C07DFF82C17016065
:102EA000DFF85407DFF854170160DFF85407DFF844
:102EB00030170160DFF84C07DFF84C170160DFF8CE
:102EC0004C074FF4AF610180DFF844070721017020
:102ED000DFF84007DFF810170160DFF83C07DFF884
:102EE000F8160160DFF83407DFF8C8160160DFF874
:102EF0003007DFF8E4160160DFF82807DFF8D8169E
:102F0000016018210020FEF785FB012840F09B801E
:102F100019210020FEF77EFB002840F09480062156
:102F20000020FEF777FB012840F08D80DFF858067F
:102F30000A210170DFF8540606210170DFF85006FF
:102F400003210170DFF84C0619210170DFF84806F3
:102F50001B210170DFF84406DFF8441609680160A0
:102F6000DFF840060C210170DFF83C063C210170BF
:102F7000DFF8380650210170DFF83406DFF8341628
:102F80000160DFF83406DFF82C160160DFF82C064C
:102F9000DFF82C160160DFF82C06DFF82C16016034
:102FA000DFF82806DFF828160160DFF82806DFF8CA
:102FB00028160160DFF82406DFF824160160DFF828
:102FC0002406DFF824160160DFF8200640F6980199
:102FD0000160DFF81C062F210160DFF81806DFF81A
:102FE000E8150160DFF81006DFF810160160DFF861
:102FF0001006DFF8EC150160DFF80806DFF80816A8
:103000000160DFF808064FF4AF610180DFF80006C9
:1030100007210170DFF8FC05DFF8CC150160DFF84F
:10302000F805DFF8B4150160DFF8F005DFF8841566
:103030000160DFF8EC05DFF8A0150160DFF8E405BA
:10304000DFF89415016018210020FEF7E3FA00284C
:1030500040F09B8019210020FEF7DCFA002840F0A8
:10306000948006210020FEF7D5FA012840F08D80DB
:10307000DFF814050A210170DFF810050621017040
:10308000DFF80C0503210170DFF808051921017034
:10309000DFF804051B210170DFF80005DFF80015DB
:1030A00009680160DFF8FC040E210170DFF8F80404
:1030B0003C210170DFF8F40450210170DFF8F004C6
:1030C000DFF8F0140160DFF8F004DFF8E8140160C5
:1030D000DFF8E804DFF8E8140160DFF8E804DFF85F
:1030E000E8140160DFF8E404DFF8E4140160DFF8BD
:1030F000E404DFF8E4140160DFF8E004DFF8E01432
:103100000160DFF8E004DFF8E0140160DFF8DC04C0
:1031100040F698010160DFF8D8042F210160DFF844
:10312000D404DFF8A4140160DFF8CC04DFF8CC1479
:103130000160DFF8CC04DFF8A8140160DFF8C404F4
:10314000DFF8C4140160DFF8C4044FF4AF610180FC
:10315000DFF8BC0407210170DFF8B804DFF8881439
:103160000160DFF8B404DFF870140160DFF8AC042C
:10317000DFF840140160DFF8A804DFF85C14016098
:10318000DFF8A004DFF85014016018210020FEF7DA
:1031900041FA002840F0978019210020FEF73AFA02
:1031A000002840F0908006210020FEF733FA002826
:1031B00040F08980DFF8D0030A210170DFF8CC03EA
:1031C00006210170DFF8C80303210170DFF8C40392
:1031D00019210170DFF8C0031B210170DFF8BC0367
:1031E000DFF8BC1309680160DFF8B8030E21017035
:1031F000DFF8B4033C210170DFF8B0035021017007
:10320000DFF8AC03DFF8AC130160DFF8AC03DFF8E4
:10321000A4130160DFF8A403DFF8A4130160DFF852
:10322000A403DFF8A4130160DFF8A003DFF8A01304
:103230000160DFF8A003DFF8A0130160DFF89C0352
:10324000DFF89C130160DFF89C03DFF89C1301603A
:10325000DFF898034FF416610160DFF894032F2123
:103260000160DFF89003DFF860130160DFF8880386
:10327000DFF8B4130160DFF88803DFF8641301603E
:10328000DFF88003DFF8A4130160DFF880034FF458
:10329000AF610180DFF8780307210170DFF8740364
:1032A000DFF844130160DFF87003CB490160DFF8F9
:1032B0006C03C0490160DFF86803C7490160DFF8AB
:1032C0006403C549016018210020FEF7A3F9012815
:1032D00068D119210020FEF79DF9002862D106214E
:1032E0000020FEF797F900285CD1A7480A21017059
:1032F000A64806210170A64803210170A54819219E
:103300000170A5481B210170A448A5490968016006
:10331000A44810210170A4483C210170A348502109
:103320000170A348A3490160A348A2490160A348D2
:10333000A3490160A348A4490160A448A4490160CD
:10334000A448A5490160A548A5490160A548A6492A
:103350000160A6484FF416610160A5482F21016065
:10336000A44899490160A448AF490160A4489C4918
:103370000160A448AD490160A4484FF4AF610180E9
:10338000A34807210170A34897490160A2489249C8
:103390000160A24887490160A1488F490160A148A6
:1033A0008D49016000BF00BF00BF00BF00BF00BF6C
:1033B00000BF00BF72480078012805D15FF4E131F9
:1033C0000520FEF7CBFE04E04FF416510520FEF772
:1033D000C5FE00BF00BFFDF739F8FDF749F800BF93
:1033E00000BF002342F210720021002000F0DEF93D
:1033F000002342F210720121002000F0D7F90023CF
:1034000042F210720221002000F0D0F9002342F2B3
:1034100010720321002000F0C9F900BF00BF002393
:10342000002201210420FEF799F8002300220F2139
:103430000320FEF793F8002300220E210320FEF75D
:103440008DF8002300220C210320FEF787F800BF2F
:1034500000BF00BF00BF00F009F900F057F900BF3E
:1034600000BF00BF00BF72480168002000F0B2FB3F
:1034700000BF00BF00BF00BF0C210020FEF7E4F832
:103480000C210020FEF7E0F811210020FEF7DCF807
:103490004FF47A70FFF770FA002301221121002007
:1034A000FEF75CF863483749096801600A23012286
:1034B0000C210020FEF724FA00F0CEFB5E490860E4
:1034C0000A23012211210020FEF71AFA00F0C4FBA2
:1034D0005A49086040F2DC50FFF74EFA62B60C2100
:1034E0000320FEF797F800280BD10E210320FEF7EA
:1034F00091F8002805D1524801210170514800215E
:1035000001705148007801280FD372B64E4800214F
:1035100001704E48002101704D48FDF759F84D48A3
:10352000FDF7BDF862B6FDF735F9154800780128BA
:103530000AD147490020FEF7A5FD46490120FEF7C4
:10354000A1FDFEF7CDFDCAE74348006800F07AFB15
:10355000424908604248006800F074FB3F494860F7
:103560004048007800F078FB3C4988603E4800788D
:1035700000F072FB3949C86000F0A3FBAFE700BF61
:10358000F60CFF1F04F80700F70CFF1FF80CFF1FD5
:10359000F90CFF1FFA0CFF1FFB0CFF1F0C0CFF1F89
:1035A00004F00700FC0CFF1FFD0CFF1FFE0CFF1FAB
:1035B000100CFF1FAE471741140CFF1F180CFF1F04
:1035C0000000FA431C0CFF1F00002041200CFF1FCD
:1035D0000020BD43240CFF1F00009643280CFF1F52
:1035E000000028422C0CFF1F00A09843300CFF1F46
:1035F000340CFF1F380CFF1F3C0CFF1FD7A30742E2
:10360000400CFF1F440CFF1F3D0A0042D00CFF1F5F
:10361000FF0CFF1F480CFF1F4C0CFF1F500CFF1F1F
:10362000540CFF1F580CFF1FAE47FF417B14F041A5
:10363000B00CFF1F040CFF1F080CFF1FCC0CFF1F5A
:10364000F40CFF1FF50CFF1FF10CFF1FF20CFF1F06
:10365000040BFF1F840BFF1F7006FF1FF40AFF1FE0
:103660006C06FF1FD60CFF1FD70CFF1FDFF8EC0402
:103670004FF4C0610160DFF8E8044FF4C0610160FD
:10368000DFF8D804006850F00300DFF8D0140860B9
:10369000DFF8CC04006850F00300DFF8C4140860C1
:1036A000DFF8C004006850F00070DFF8B81408605C
:1036B000DFF8B404006850F00400DFF8AC140860D0
:1036C000DFF8A804006850F00800DFF8A0140860D4
:1036D000DFF89C0400210160DFF898044FF6FF71C9
:1036E0000160DFF88804006850F00100DFF87C1406
:1036F0000860DFF87404006850F00100DFF8681417
:103700000860DFF87404002101607047DFF86C0482
:103710004FF4C0610160DFF868044FF4C0610160DC
:10372000DFF85804006850F00300DFF85014086018
:10373000DFF84C04006850F00300DFF84414086020
:10374000DFF84004006850F08070DFF8381408603B
:10375000DFF83404006850F00400DFF82C1408602F
:10376000DFF82804006850F00800DFF82014086033
:10377000DFF81C0400210160DFF818044FF6FF7128
:103780000160DFF80804006850F00100DFF8FC1366
:103790000860DFF8F403006850F00100DFF8E81378
:1037A0000860DFF8F4030021016070472DE9F84F4D
:1037B00004000D0016001F00DFF8E00300684FF45E
:1037C0007A7148435FEA5008E4B2002C0DD0E4B2AD
:1037D000012C02D0E4B2022C02D1EDB2022D04D3AE
:1037E0005821DFF8BC03FEF7A9FC5FEA5800B0429D
:1037F00004D25921DFF8A803FEF7A0FC5FEA1840C5
:10380000B0FBF6F08146002082461FFA89F959FA8A
:103810000AF0012802DB1AF1010AF6E74FF47A7088
:10382000864201D21AF1010A5FFA8AFABAF1080F48
:1038300001D30720824638FA0AF0B0FBF6F0814641
:103840001FFA89F919F1010000FB07F042F210712B
:10385000B0FBF1F08346E4B2002C05D0022C00F05E
:10386000B880C0F08A80E0E0DFF8F802006850F02D
:103870008070DFF8F0120860EDB2002D0BD0022D41
:1038800025D016D3042D3ED02FD3062D57D048D3A4
:10389000072D62D06FE0DFF80C03006850F4006081
:1038A000DFF800130860DFF800034FF48061016067
:1038B00062E0DFF8F002006850F40060DFF8E41224
:1038C0000860DFF8E8024FF48061016054E0DFF83F
:1038D000D402006850F40060DFF8C8120860DFF816
:1038E000D0024FF48061016046E0DFF8B802006862
:1038F00050F40060DFF8AC120860DFF8B8024FF453
:103900008061016038E0DFF89C02006850F480506C
:10391000DFF890120860DFF8A0024FF480610160C8
:103920002AE0DFF88002006850F48050DFF874125B
:103930000860DFF888024FF4806101601CE0DFF866
:103940006402006850F48050DFF858120860DFF815
:1039500070024FF4806101600EE0DFF848020068F9
:1039600050F48050DFF83C120860DFF858024FF442
:103970008061016000E0ACE057E0DFF8E80100683A
:1039800050F00070DFF8DC110860EDB2002D02D0BD
:10399000012D0ED01BE0DFF80C02006850F48060AF
:1039A000DFF800120860DFF8B4014FF440710160E5
:1039B0000EE0DFF8F001006850F48060DFF8E411F9
:1039C0000860DFF89C014FF44071016000E080E086
:1039D0002BE0DFF8B001006850F08070DFF8A41130
:1039E0000860EDB2002D02D0012D0ED01BE0DFF8F3
:1039F000B401006850F48060DFF8A8110860DFF8B7
:103A0000C8014FF4407101600EE0DFF898010068D2
:103A100050F48060DFF88C110860DFF8B0014FF4DB
:103A20004071016000E054E0FFE7EDB2E4B2DFF87E
:103A3000A00150F8240010EBC500EDB2E4B2DFF8AD
:103A4000901151F8241011EBC501C96831F004013F
:103A5000C160EDB2E4B2DFF8780150F8240010EB59
:103A6000C5002821C160E4B2DFF8640150F82400E9
:103A70005FFA8AFA1AF0070151F028010160E4B2F6
:103A8000DFF84C0150F824000021C164E4B2DFF8F3
:103A9000400150F824001FFA89F9C0F80890E4B2F8
:103AA000DFF82C0150F824000021C164EDB2E4B22B
:103AB000DFF81C0150F8240010EBC5001FFA8BFB47
:103AC000C0F810B0E4B2DFF8080150F8240000217B
:103AD0004160BDE8F18F2DE9F04104000D001600B2
:103AE0005FF00008E4B2002C0ED0E4B2012C02D04A
:103AF000E4B2022C02D1EDB2022D05D34FF4C07115
:103B0000DFF89C00FEF71AFB42F21170864205D3E3
:103B100040F28111DFF88800FEF710FBB8F1000FCA
:103B200007D1E4B2DFF8A80050F82400806880468E
:103B3000F4E718F1010000FB06F042F21071B0FB4F
:103B4000F1F00700EDB2E4B2DFF8840050F8240091
:103B500010EBC5000761BDE8F081000000A0044043
:103B600004A004403C8004405490034080900340F3
:103B70004C900340089003400490034048A0044048
:103B80004CA004403080044054800B4080800B40A7
:103B90004C800B4008800B4004800B40B00CFF1F92
:103BA0002C6400003880044004B0044008B0044095
:103BB0000CB0044010B0044010C0044014C00440D5
:103BC00018C004401CC00440489004404C9004407D
:103BD000E805FF1F38B504000D001748006850F4D1
:103BE00000001549086015480068800880001349E6
:103BF0000860E4B2200112494550E4B2104810EBCD
:103C00000410C06850F00100E4B20D4911EB04113A
:103C1000C860E4B20A4810EB0410806850F003005A
:103C2000E4B2074911EB04118860E4B214F14400D6
:103C300000F0B9F831BD00003C8004400070034042
:103C400000710340002840F10980F446404200F032
:103C500005F850F000406047002800BF0AD0B0FAD5
:103C600080F18840D1F19D01C905020672F1004240
:103C700041EB10207047000030B402004FF6FF7592
:103C8000280000252B00DBB2C9B28B4216D2DBB272
:103C90009D5C684000252C00E4B2082C0CD2C507BE
:103CA00006D580B2400880F4204090F0010001E089
:103CB00080B24008641CEFE75B1CE4E780B230BCD4
:103CC000704730B58BB007A8102100F0C7F803A8E3
:103CD000102100F0C3F800A80021002200230EC02C
:103CE0000C38002500200400E4B2042C13D2E4B206
:103CF0002A4850F8240000F0B5F8E4B207A941F8CA
:103D00002400E4B203A8E4B207A951F8241040F853
:103D10002410641CE8E700200400E4B2042C19D24B
:103D2000E4B203A850F824004FF48071B0FBF1F224
:103D300002FB1102E4B200A800F81420E4B203A8C8
:103D400050F82400000AE4B200A911EB44014870C5
:103D5000641CE2E7082100A8FFF78EFF0500ADB262
:103D60004FF4807095FBF0F101FB10518DF80810B5
:103D7000ADB24FF4807095FBF0F08DF80900002093
:103D80000400E4B20A2C07D2E4B200A8215C0520AA
:103D9000FEF7BBFA641CF4E70BB030BDF40AFF1F5A
:103DA00026490860704738B504005C2C02DB2448C3
:103DB000FEF7CDFD202094FBF0F00500002D03D090
:103DC000022D27D013D337E00120202194FBF1F2FC
:103DD00002FB114290401B4908600120202194FB06
:103DE000F1F202FB114290401749086024E00120E3
:103DF000202194FBF1F202FB11429040134908602C
:103E00000120202194FBF1F202FB11429040104965
:103E1000086011E00120202194FBF1F202FB114225
:103E200090400C4908600120202194FBF1F202FB34
:103E3000114290400849086031BD000008ED00E0E3
:103E40008463000080E200E000E100E084E200E042
:103E500004E100E088E200E008E100E0002200F078
:103E600023B800004100090E7F3915D4D1F11F019C
:103E700014D4400007D2C00140F00040C84048BF01
:103E80006FF000407047C00140F00040C8404CBF98
:103E90004FF00040404270470020704700424FF012
:103EA000004058BFC043704700B500BF130096469E
:103EB0009446103928BFA0E80C50FAD85FEA417C3C
:103EC00028BF0CC048BF40F8042BC90728BF20F802
:103ED000022B48BF00F8012B00BD000000000000CD
:103EE000000000000000000000000000000000F8DA
:103EF00000000000000000333000000000100C063D
:103F0000100C0600000000000000000040C07840D7
:103F1000C0784000043F04043F040400007088FCA3
:103F200008300000001820FF211E0000F008F000FB
:103F3000E018000000211C031E211E0000F008886C
:103F4000700000001E2123241927211010160E00D6
:103F5000000000000000000000000000000000E081
:103F60001804020000000007182040000002041896
:103F7000E00000000040201807000000404080F0F2
:103F8000804040000202010F01020200000000F028
:103F9000000000000101011F0101010000000000FC
:103FA0000000000080B07000000000000000000071
:103FB00000000000000101010101010100000000FA
:103FC0000000000000303000000000000000000091
:103FD00080601804006018060100000000E010086E
:103FE0000810E000000F102020100F00001010F843
:103FF000000000000020203F202000000070080882
:104000000888700000302824222130000030088801
:10401000884830000018202020110E000000C02029
:1040200010F8000000070424243F240000F808884A
:10403000880808000019212020110E0000E01088D7
:1040400088180000000F112020110E000038080809
:10405000C83808000000003F000000000070880819
:1040600008887000001C222121221C0000E010089A
:104070000810E0000000312222110F00000000C0F3
:10408000C000000000000030300000000000008090
:104090000000000000008060000000000000804080
:1040A0002010080000010204081020004040404099
:1040B00040404000040404040404040000081020EC
:1040C0004080000000201008040201000070480831
:1040D0000808F0000000003036010000C030C82899
:1040E000E810E0000718272423140B000000C03854
:1040F000E0000000203C23020227382008F88888CE
:1041000088700000203F202020110E00C0300808D9
:1041100008083800071820202010080008F80808B0
:104120000810E000203F202020100F0008F88888A9
:10413000E8081000203F20202320180008F8888875
:10414000E8081000203F200003000000C0300808ED
:104150000838000007182020221E020008F8080076
:104160000008F808203F210101213F20000808F83D
:10417000080800000020203F202000000000080860
:10418000F8080800C08080807F00000008F888C020
:1041900028180800203F20012638200008F80800D1
:1041A00000000000203F20202020300008F8F80008
:1041B000F8F80800203F003F003F200008F830C01A
:1041C0000008F808203F200007183F00E01008080A
:1041D0000810E0000F10202020100F0008F8080839
:1041E0000808F000203F210101010000E01008084C
:1041F0000810E0000F18242438504F0008F8888871
:1042000088887000203F2000030C30200070880850
:10421000080838000038202121221C00180808F85E
:10422000080818000000203F2000000008F80800DF
:104230000008F808001F202020201F0008788800B0
:1042400000C83808000007380E010000F80800F820
:104250000008F800033C0700073C030008186880CA
:104260008068180820302C03032C30200838C80040
:10427000C83808000000203F20000000100808088F
:10428000C83808002038262120201800000000FE31
:10429000020202000000007F40404000000C30C0DD
:1042A00000000000000000010638C0000002020209
:1042B000FE000000004040407F00000000000402BB
:1042C00002020400000000000000000000000000E6
:1042D00000000000808080808080808000020204D6
:1042E00000000000000000000000000000008080CE
:1042F000808000000019242222223F2008F800803C
:1043000080000000003F112020110E0000000080FE
:1043100080800000000E112020201100000000808D
:104320008088F800000E112020103F2000008080BF
:1043300080800000001F222222221300008080F0D3
:10434000888888180020203F2020000000008080FE
:1043500080808000006B94949493600008F8008043
:1043600080800000203F210000203F20008098989E
:10437000000000000020203F2020000000000080FE
:104380009898000000C08080807F000008F800003E
:1043900080808000203F24022D302000000808F893
:1043A000000000000020203F20200000808080804E
:1043B00080808000203F20003F20003F80800080E0
:1043C00080800000203F210000203F2000008080EE
:1043D00080800000001F202020201F00808000809F
:1043E0008000000080FFA12020110E00000000804E
:1043F00080808000000E112020A0FF80808080003F
:104400008080800020203F2120000100000080806B
:10441000808080000033242424241900008080E060
:10442000808000000000001F20200000808000002D
:1044300000808000001F202020103F20808080000E
:104440000080808000010E3008060100808000801E
:10445000008080800F300C030C300F000080800043
:10446000808080000020312E0E312000808080006E
:104470000080808080818E7018060100008080801E
:10448000808080000021302C2221300000000000BC
:10449000807C020200000000003F4040000000005D
:1044A000FF00000000000000FF0000000002027C8E
:1044B000800000000040403F0000000000060101B5
:1044C00002020404000000000000000080B500F0BB
:1044D0008DFA00F0A7FA00F005FBDFF8E803FEF71D
:1044E00036FADFF8E4030068DFF8E0134979491C85
:1044F000B0FBF1F00090DFF8D0030068DFF8CC13D8
:104500000979491CB0FBF1F3DFF8BC030068DFF860
:10451000BC13C978491CB0FBF1F2DFF8AC030168A9
:10452000DFF8AC03FEF713FADFF8A80300784007C2
:1045300003D5DFF8A403FEF70AFADFF89803007842
:10454000800703D5DFF89403FEF701FADFF8840350
:104550000078C00703D5DFF88803FEF7F8F9DFF825
:1045600084030078000603D5DFF87C03FEF7EFF93B
:10457000DFF870030078400603D5DFF87003FEF71C
:10458000E6F9DFF860030078800603D5DFF8600302
:10459000FEF7DDF9DFF84C030078400703D5DFF8BC
:1045A0005403FEF7D4F9DFF83C030078800703D505
:1045B000DFF84403FEF7CBF9DFF828030078C007E3
:1045C00003D5DFF83803FEF7C2F9DFF83403FEF74E
:1045D000BEF9DFF83003DFF83013884204D0DFF88B
:1045E0002C03FEF7B4F903E0DFF82403FEF7AFF97C
:1045F00000F003F8FEF7EEF9FEE780B5DFF81403EC
:104600000068000910F0070000280BD0022813D022
:104610000DD3042819D014D306281ED019D3072887
:104620001FD022E0DFF8F002FEF791F920E0DFF87A
:10463000EC02FEF78CF91BE0DFF8E402FEF787F9E5
:1046400016E0B848FEF783F912E0B748FEF77FF9A5
:104650000EE0B648FEF77BF90AE0B548FEF777F9B9
:1046600006E0B448FEF773F902E0B348FEF76FF9CD
:10467000A848006810F00F00022812D0042814D0B7
:10468000052816D0062818D007281AD008281CD0CC
:1046900009281ED00A2820D00C2822D00E2824D089
:1046A00027E0A648FEF753F926E0A548FEF74FF9A4
:1046B00022E0A448FEF74BF91EE0A348FEF747F9B5
:1046C0001AE0A248FEF743F916E0A148FEF73FF9C9
:1046D00012E0A048FEF73BF90EE09F48FEF737F9DD
:1046E0000AE09E48FEF733F906E09D48FEF72FF9F1
:1046F00002E09C48FEF72BF986480068000B10F09A
:104700000F00002803D0022809D004D30BE09648FC
:10471000FEF71DF90AE09548FEF719F906E09448FE
:10472000FEF715F902E09348FEF711F900F06AF878
:1047300091480068000E10F00F00072806D00928E5
:1047400008D00B280AD00F280CD00FE08B48FEF7BA
:10475000FEF80EE08A48FEF7FAF80AE08948FEF70C
:10476000F6F806E08748FEF7F2F802E08648FEF722
:10477000EEF886480068000203D58548FEF7E7F8A2
:104780001EE07D480068000F002806D0072808D0EA
:1047900009280AD00F280CD00FE07E48FEF7D7F882
:1047A0000EE07D48FEF7D3F80AE07C48FEF7CFF82C
:1047B00006E07A48FEF7CBF802E07948FEF7C7F842
:1047C00078480068000B10F00F00052806D0072875
:1047D00008D008280AD009280CD00FE07248FEF74C
:1047E000B6F80EE07148FEF7B2F80AE07048FEF73E
:1047F000AEF806E06F48FEF7AAF802E06E48FEF752
:10480000A6F801BDF8B56D48032101706C48002180
:1048100001706C48002101706B48002101706B48E9
:10482000012101706A488021017069480078000602
:10483000FBD56848007804006748007805006748A1
:1048400000780600664800780700FFB20097F6B2CD
:104850003300EDB22A00E4B221006248FEF777F897
:104860005648032101705648002101705548002127
:1048700001705548042101705448012101705448C9
:1048800080210170524800780006FBD5514800781D
:104890000400514800780500504800780600504850
:1048A00000780700FFB20097F6B23300EDB22A009D
:1048B000E4B221004C48FEF74AF84548FF21017058
:1048C000F1BD00004C650000AC0CFF1F3C06FF1F53
:1048D000FC62000000E00740E0670000EC650000BB
:1048E000C068000001E00740F0670000406700007A
:1048F000406600005866000008660000CC680000B2
:104900006C6500000000FF1F00000000D868000078
:10491000E468000024800440FC6800000469000092
:104920000C690000146900001C6900002469000083
:104930002C69000034690000EC640000006800008D
:104940001068000020680000306800004068000027
:104950005068000060680000706800008068000017
:1049600090680000946400005467000068670000CD
:104970007C670000446300004C80044070660000C7
:1049800088660000A06600008C650000508004402E
:10499000A0680000B8660000D0660000E86600006D
:1049A000AC6500000070044090670000A467000040
:1049B000B8670000CC6700002466000007000240D2
:1049C0000600024005000240040002400F000240C1
:1049D000000002400B0002400A00024009000240B1
:1049E0000800024014650000CC65000080B500F0AE
:1049F00009F80A4800884FF6FE7108400749088008
:104A000001BD000072B606484CF2205101800448F6
:104A10004DF62811018062B6704700000020054065
:104A20000E2005402DE9F8432448254988420DD041
:104A300000208046B8F5826F08D22048204951F8FE
:104A4000281040F8281018F10108F3E71B48FFF779
:104A5000A7F91C4807001C4806001C480400A01BBE
:104A600080464046B0F10108002804D03078387004
:104A7000761C7F1CF5E71648814616480500B5EB05
:104A8000090080464046B0F10108002805D000200A
:104A900089F8000019F10109F4E70F480F49104A9D
:104AA000531A98464346B3F10108002B04D00B7803
:104AB0000370491C401CF5E7BDE8F1830000FF1FAF
:104AC00000000000E805FF1F3C620000B06200002B
:104AD0005C06FF1F020DFF1F1004FF1FB85D0000E2
:104AE000905F000080B51148006850F478500F497D
:104AF0000860C82000F028F80D4908600C480068DC
:104B00004FF47A7148430B4908600A4800680A4923
:104B10000968C1F30361491CB0FBF1F00749086063
:104B20005FF4E1310420FDF719FB01BD388004403A
:104B3000AC0CFF1FA80CFF1F44800440B00CFF1FEB
:104B4000DFF800F09905FF1F38B50400E4B2002C2F
:104B500000F00E81E4B2200030281ED0322823D08D
:104B6000602828D064282DD06E2832D0782837D0FD
:104B70007D283CD0822841D08C2846D096284BD026
:104B8000A02850D0AA2855D0B4285AD0C8285FD021
:104B9000E12864D0FA2869D06FE0A4481821017098
:104BA000A248002141706CE0A048182101709F4884
:104BB0000121417065E09D48182101709B48182132
:104BC00041705EE099481821017098481A2141709F
:104BD00057E096481821017094481F21417050E019
:104BE00092481321017091481821417049E08F4883
:104BF000132101708D481A21417042E08B48132126
:104C000001708A481C2141703BE088480E210170E8
:104C100086481221417034E084480E210170834897
:104C2000152141702DE081480E2101707F48182127
:104C3000417026E07D480E2101707C481B214170A7
:104C40001FE07A480E21017078481E21417018E05B
:104C500076480C21017075481C21417011E07348A1
:104C60000B21017071481E2141700AE06F480A2132
:104C700001706E481F21417003E06420FFF764FF5C
:104C8000D2E06A4800218170E4B2332C03D2674835
:104C90000021C17017E0E4B2652C03D26348012102
:104CA000C17010E0E4B2972C03D260480221C170B9
:104CB00009E0E4B2C92C03D25C480321C17002E0D0
:104CC0005A480F21C17059485849C9780171E4B256
:104CD0001F2C03D255480021417149E0E4B23D2C1C
:104CE00003D252480121417142E0E4B25B2C03D26D
:104CF0004E48022141713BE0E4B2792C03D24B488B
:104D00000321417134E0E4B2972C03D247480421D7
:104D100041712DE0E4B2B52C03D244480521417124
:104D200026E0E4B2D32C03D24048062141711FE0B3
:104D3000E4B2F12C03D23D480721417118E0200074
:104D4000C0B240F20F1180B2884203D23748082126
:104D500041710DE02000C0B240F22D1180B28842B6
:104D600003D232480921417102E030480F214171DC
:104D70002E484078183080B2322148432B490978B8
:104D8000491C89B290FBF1F005002948002101700F
:104D90002848006850F0805026490860264800786E
:104DA00050F080002449087024489821017024485C
:104DB0000078C006FBD422480078C0F38100C0B25E
:104DC0000228F8D11948007810F01F001D4908701A
:104DD0001D48002101701548437914480279134891
:104DE000C17812488078FFF7ABFE1048407810F089
:104DF0001F0050F0400014490870114800788006E8
:104E0000FBD50F4800784006FBD50C48007810F021
:104E10003F000A4908700A480078C0F38100C0B218
:104E20000328F8D12800C0B232BD00BF3C06FF1FE6
:104E3000014006403480044008C00740004006405E
:104E400006400640044006400540064080B5DFF8B5
:104E5000A4030068DFF8A013096800F027FADFF860
:104E60009C13096800F096FADFF894130860DFF8E5
:104E700084030068DFF88013096800F017FADFF890
:104E80007C13096800F012FADFF878130860DFF885
:104E900070030168DFF8700300F0BEFADFF86013FA
:104EA0000860DFF860030168DFF85C0300F0B4FA23
:104EB000DFF850130860DFF848030068DFF84C1390
:104EC00000F016FB04D8DFF83803DFF84413016064
:104ED000DFF82C030068DFF83C1300F01BFB04D262
:104EE000DFF81C03DFF82C130160DFF818030068FB
:104EF000DFF8181300F0FCFA03D8C248DFF81013EB
:104F00000160C0480068C34900F004FB02D2BD48FC
:104F1000C0490160BA480068002100F0E9FA04D2F3
:104F2000BD48B7490968016005E0BB48B449096854
:104F300091F000410160B3480068002100F0D8FA08
:104F400004D2B648AF490968016005E0B348AD49ED
:104F5000096891F000410160B1480078012805D14D
:104F6000AE4800210160AC4800210160A5480068FE
:104F7000002100F0BDFA0ED8A848006800F0DCFA65
:104F8000020000210020FEF7A6FD002202210020E1
:104F9000FEF7A1FD0DE0A148006800F0CDFA020087
:104FA00002210020FEF797FD002200210020FEF7DD
:104FB00092FD93480068002100F09AFA11D89648B3
:104FC0000168984800F0E6F900F0B6FA0200012105
:104FD0000020FEF780FD002203210020FEF77BFD6C
:104FE00010E08D4801688F4800F0D4F900F0A4FA71
:104FF000020003210020FEF76EFD002201210020A7
:10500000FEF769FD01BDF0B50026002786488749F7
:1050100009684942018086488649096849420180F9
:105020008148B0F900008249B1F900100818022146
:1050300090FBF1F0FEF706FE7F49086000207B49F7
:1050400008607C4908607C48006800F087FA5FF0DF
:1050500033327A4BFCF7FCFC04000D007848006802
:1050600000F07CFA774A784BFCF7F2FC22002B0028
:1050700000F09CFA00F00EFB744908607048734918
:1050800009680160724800687049096800F00EF90B
:10509000704908606F4800686F49096800F006F9B8
:1050A0006E4908606C486B49096801606C4800787B
:1050B00000280AD16648002101606A486A490968E7
:1050C00001606A486A4909680160654800780128FA
:1050D00019D168480078322815D066480078401CFD
:1050E0006449087064480088FEF7B6FD010058481E
:1050F000006800F00FFA06D2554801685F4800F0DA
:1051000049F95349086056480078012810D1594898
:1051100000785B49097888420AD1564832210170EB
:10512000504858490968016050485749096801606A
:105130004C4801684948006800F06EF900F00EFA2A
:105140000022524B00F0EEFA00F0A4FA06004748A5
:1051500001684048006800F05FF900F0FFF90022A4
:105160004A4B00F0DFFA00F095FA07004848076064
:1051700048480660484849490968016030003900DC
:1051800000F008F945490860F0BD10B543480068D3
:105190004149096800F08AF8040041480078401C41
:1051A000FEF750FD210000F037F9344900F0DEFB36
:1051B0003949096800F0EEF80F49086010BD70B574
:1051C00004000D0037480068FEF73CFD210000F0A8
:1051D00023F9060034480068FEF734FD290000F08A
:1051E0001BF9310000F0D6F8074900F0BFFB014978
:1051F000086070BD640CFF1F740CFF1FB40AFF1F12
:105200005C0CFF1F600CFF1F0000204101A00C463A
:1052100000A00C4600A00CC6680CFF1F6C0CFF1F02
:10522000F60CFF1F0000B0C2D20CFF1F04800B4021
:10523000D40CFF1F04900340700CFF1F3333E33F77
:10524000900CFF1F9A9999999999D93F8C0CFF1F3F
:10525000780CFF1F9C0CFF1FA40CFF1FA00CFF1F4E
:10526000F30CFF1F940CFF1F380CFF1F980CFF1F3F
:105270003C0CFF1F010DFF1FD00CFF1F0000C84298
:10528000FF0CFF1F400CFF1F440CFF1F00002440B9
:105290007C0CFF1F800CFF1F840CFF1F880CFF1F5E
:1052A000000DFF1F300CFF1F340CFF1F90EA010F91
:1052B00044BF81F0004100F075B800BF431A4FF0C1
:1052C00000423EBF5340C01AC91800BFD3095FEA6D
:1052D000D05C13EB400F34BFB3EB410F40E07CEBED
:1052E000D1530CD342EA012122D8D1EB402009D37B
:1052F000400A28BF5FEA500140EBCC507047401A8B
:1053000015D04002B0FA80F2521C9040400A4FEA99
:105310003C23B3EB026384BF00EB730007E040F46F
:1053200000001A16DB07C2F10102D0401843704793
:10533000182BFCDC31FA03F202FA03F3591A38BFD6
:1053400042F00102D2EB40203CBF4000ACF1010C26
:105350005FEACC5CC20572F100414CEB5020704713
:1053600013EB400F0FD24B0009D0ACEBD153022B03
:1053700003DB4902172BDDDD70479143401A4300E0
:10538000D5D10020704713EB410FD0D36FF0000050
:105390007047000090EA010F44BF81F00041FFF721
:1053A0008DBF00BF421A3CBF801A89184FF0004CD5
:1053B000C0F3C752FF2A24D0C1F3C75313B3D21A84
:1053C000D2F1190327DD4CEA01214CFA03F321EA5B
:1053D0000303D140C20D4CEA0020401834BF20EA3C
:1053E0000C004CEA5000D20553EA006373EB0C0C3E
:1053F00052EB1020420012F1807F38BF7047C00D81
:10540000C0057047490212BF9A4200EB5120F8E7ED
:10541000D2F11703D9D57047FF2212EAD05C1DBF25
:1054200012EAD153944593422BE09C44D30780EA7F
:1054300001021A4043EA002043EA0121A1FB0030A7
:10544000410038BF40007CF17F010BDBFE294ADAC6
:105450005B0842EAC15153EA006373F1004C51EB1F
:1054600010207047D1F1080CDCF120012FDB5B0824
:1054700010FA01F10B4373F1004120FA0CF0504196
:10548000704794451CBF02EAD153934280EA01025F
:1054900002F000421DD0400019D0490017D05BB97E
:1054A000634514D00902B1FA81F39940BCEB030CB7
:1054B000C00140F00040C1E70002B0FA80FC10FAE1
:1054C0000CF0B3EB0C0CC90141F00041B6E7100041
:1054D000704740000AD0490008D010F1807F94BF87
:1054E00011F1807F02E042F0FF407047D0437047E7
:1054F0004FF0807C1CEB400F94BF1CEB410F05E08C
:1055000040EA010C5FEA4C0C01D28142704718BF9F
:10551000884270474FF0807C1CEB400F94BF1CEB1F
:10552000410F05E040EA010C5FEA4C0C01D28842D1
:10553000704718BF8142704740000DD2010E7F397D
:105540000AD4D1F11F0104D4C00140F00040C8408A
:1055500070477FF000007047002070475FF0FF0C3D
:105560001CEAD05114BF614506E0C110400721F08C
:10557000E04101F16051704779B900F0004100024B
:105580000AD0B0FA80FC00FA0CF001F16051A1EBF6
:105590000C5101EBD0214005704741020CBF40F493
:1055A000E0016FF0000100207047000070B44FF080
:1055B000004591EA030C44BF6B4000F055BA00BFB0
:1055C000841A71EB030603D2001BB1411219734117
:1055D0004FF4001C1CEB410F34BF7CEB430443E051
:1055E0000C0DA4EB1356352E50DC45EAC323DB0A21
:1055F00045EAC121C912B6F120050DDD63FA05F6B1
:10560000EB4086EA0305124218BF45F00105C018B9
:1056100051F100010CD213E062FA06F5F240554058
:10562000F3415A40B340F3405A408018594107D3E0
:1056300049085FEA30005FEA350528BF45F00105FB
:1056400001F58011420875F1004250F1000041EB74
:10565000045170BC4FF4001C1CEB410F38BF704765
:105660000020090D090570471CEB410F10D252EACA
:1056700043060BD0BCEB410F05D80C0DAB43661EA7
:10568000342EB5DD02E0AB438018594170BC704741
:1056900070BC70474FEAF17CBCF1E04C2CBFBCF50C
:1056A000001F11E05FEA4C0C34BFBCF17F5F2EE0BD
:1056B0005FEA9C0C4FEA0C1C4FEA3C0CC10071F1F4
:1056C00000414CEB50707047C90241EA5051C00292
:1056D00018BF41F0010141F000414FEA6C50C0F1A8
:1056E0000900212810D240EACC7CCCF1200C11FA20
:1056F0000CF070F10040CCF1200C21FA0CF00CF011
:10570000004C40EB0C0070474FEACC7070474900EA
:1057100011F5001F04D84FEACC10FF30C0057047C8
:10572000C8177047F0B540F2FF7581EA030C0CF022
:10573000004C15EA11541DBF15EA1357AC42AF4295
:10574000E5E0BC41C1F31301C3F31303801A99418F
:1057500043F4801304D2641E40004941801859412B
:10576000C90241EA5051B1FBF3F603FB1611A2FB4B
:105770000675D7EBC020A94102D2761E8018594188
:10578000C90241EA5051B1FBF3FE03FB1E11A2FB1B
:105790000E75D7EBC020A94103D2AEF1010E8018DF
:1057A0005941890241EA9051760546EA8E2EB1FBB5
:1057B000F3F603FB1611A2FB0675D7EB8020A94177
:1057C00002D2761E80185941C90241EA50514EEA70
:1057D000060EB1FBF3F603FB1611A2FB0675D7EB21
:1057E000C020A94102D2761E80185941C90241EA5F
:1057F0005051B1FBF3F703FB1711A2FB0735D3EBB5
:10580000C020A94167F100070CBF004247F0010723
:1058100066F3D5274FEA1E31B80814F5806412DD0F
:10582000BD0775F1004250EB0E5051EB045111F5DC
:10583000801F5CBF41EA0C01F0BD4CF07F6141F07C
:10584000E0410020F0BDBD076D0840EA0E5041F474
:105850008011D4F10104B4F120060ADAC4F1200663
:105860000200E04001FA06F3E1401843B24015435C
:105870000EE0342C13DCC6F1200445EA40056D0827
:1058800020FA06F2154321FA06F0A1400D4300214B
:1058900075F1004250F1000051EB0C01F0BD002009
:1058A0005FEA0C01F0BDCFB992185B41B3FA83F700
:1058B00004BFB2FA82F6BF190B3FB7F120062FBF23
:1058C00002FA06F3BB40C7F1200622FA06F638BFFB
:1058D0003343BA401CB1E419641E33E77F4231F010
:1058E0000041B1FA81F404BFB0FA80F6A4190B3C70
:1058F000B4F120062FBF00FA06F1A140C4F1200642
:1059000020FA06F638BF3143A0403C1B1AE7AC42F0
:105910001ABF05EA1357AF4212E050EA41061CBF16
:1059200052EA4306BFE750EA4107304661461CBFD2
:1059300041EA0551F0BD52EA430C08BFC143F0BD36
:1059400000204FF4001616EB410F98BF16EB430FE3
:1059500008BF16EB410F24BFC14305E016EB430F10
:105960000CBF61464CEA0551F0BD000010B5FF23A5
:1059700013EAD0541DBF13EAD1529C429A4239E037
:10598000A41ADA0780EA0103134042EA012142EA3D
:105990000020421A3CBF641E01EB4202090AB2FB1E
:1059A000F1FE01FB1E221202B2FBF1F001FB1022FC
:1059B0006EF30F201202B2FBF1FE4EEA00207F349C
:1059C00006DDFE2C24DA53EA500050EBC45010BD23
:1059D000D4F1020401FB1E2240F08071192C1DDC61
:1059E00021FA04F0C4F12004A140114371F10042F6
:1059F000584110BD9C421ABF03EAD1529A420FE0AF
:105A000080EA010E0EF00043400004D0490016D198
:105A100043F0FF4010BD490008BFD343180010BD3C
:105A20009C4205D1D21AF7D001F00041484010BD88
:105A30004A0212BF0846484000F0004010BD4AB973
:105A40000902B1FA81F2914044B1A418C00140F0BA
:105A500000409EE7C90141F0004152420002B0FA05
:105A600080F4A040141B94E7841A71EB030604D25F
:105A70006E40001BB141121973414FF4001C1CEB26
:105A8000410F34BF7CEB430684E00C0DA4EB1356AE
:105A9000362E7DDC012E43DC45EAC32343EA525314
:105AA00012BFD20292025B08240545EAC12141EAF5
:105AB0005051D2EBC020994125D407D1B0FA80F6DD
:105AC00010FA06F164D00020203608E0B1FA81F621
:105AD000B140C6F1200220FA02F21143B0404FEA71
:105AE000F474B4EB465434F001064FEA74040AD857
:105AF000D6F50016760D04F00044F04061FA06F287
:105B00005040F1404840C00A40EA415021F0004175
:105B100028BF5FEA500550F1000044EBD12137E087
:105B200045EAC323DB0A45EAC121C90AB6F12005CB
:105B30000EDD42EA0242120CC5F1200603FA06F617
:105B4000EB4042EA06056D42984161F100010DE02B
:105B500062FA06F5F240554063FA06FC82EA0C024E
:105B6000F3405A406D42904161EB030111F4801FF4
:105B700005D1641E620502D06D004041494121F407
:105B80008011430875F1004350F1000041EB0451CE
:105B900070BC70471CEB410F15D223F0004352EA52
:105BA00043060BD04FEA4C0CBCEB410F04D80C0D54
:105BB000661E342EB7DDEBE7801A994150EA4106A4
:105BC00008BF0021E4E708BF1CEB430F28BF6FF0BC
:105BD0000001DDE710B50400012211210020FBF7D0
:105BE00050FEFEF739F85F4908605F485F49096871
:105BF00001605F485F49096801605F4800785F495C
:105C000009780843C0B2002804D1B4F140005749D4
:105C100008600CE058480078012804D1B4F14A002B
:105C20005249086003E0B4F13600504908604F481B
:105C30000068FEF707F852490968FFF7EDFBFFF728
:105C40008DFC00224F4BFFF76DFDFFF723FD4E4902
:105C500008604648006844490968401AFDF7F2FFA9
:105C60004A490968FFF7D8FBFFF778FC0022454B4B
:105C7000FFF758FDFFF70EFD4549086045480068ED
:105C800038490968FFF712FB43490968FFF7C4FB6D
:105C9000FFF764FC00223B4BFFF744FDFFF7FAFCE3
:105CA0003E4908603A4800683D490968FFF720FC12
:105CB00003D837483A49096801603948006890F0CC
:105CC000004033490968FFF713FC05D830483449D0
:105CD000096891F0004101602B4801682F48006875
:105CE000FFF758FB2A490968FFF754FB2D49086064
:105CF0002C4800682C490968FFF7FAFB03D82948AB
:105D00002949096801602848006890F00040254949
:105D10000968FFF7EDFB05D822482349096891F08F
:105D20000041016013481F490968016010BD10B5AA
:105D3000104800680E490968FFF7B8FA04001B48CC
